{"abi":[{"type":"constructor","inputs":[{"name":"admin","type":"address","internalType":"address"}],"stateMutability":"nonpayable"},{"type":"function","name":"DEFAULT_ADMIN_ROLE","inputs":[],"outputs":[{"name":"","type":"bytes32","internalType":"bytes32"}],"stateMutability":"view"},{"type":"function","name":"MAX_SUPPLY","inputs":[],"outputs":[{"name":"","type":"uint256","internalType":"uint256"}],"stateMutability":"view"},{"type":"function","name":"MINTER_ROLE","inputs":[],"outputs":[{"name":"","type":"bytes32","internalType":"bytes32"}],"stateMutability":"view"},{"type":"function","name":"approve","inputs":[{"name":"to","type":"address","internalType":"address"},{"name":"tokenId","type":"uint256","internalType":"uint256"}],"outputs":[],"stateMutability":"nonpayable"},{"type":"function","name":"balanceOf","inputs":[{"name":"owner","type":"address","internalType":"address"}],"outputs":[{"name":"","type":"uint256","internalType":"uint256"}],"stateMutability":"view"},{"type":"function","name":"burn","inputs":[{"name":"tokenId","type":"uint256","internalType":"uint256"}],"outputs":[],"stateMutability":"nonpayable"},{"type":"function","name":"getApproved","inputs":[{"name":"tokenId","type":"uint256","internalType":"uint256"}],"outputs":[{"name":"","type":"address","internalType":"address"}],"stateMutability":"view"},{"type":"function","name":"getBadgeId","inputs":[{"name":"tokenId","type":"uint256","internalType":"uint256"}],"outputs":[{"name":"","type":"uint256","internalType":"uint256"}],"stateMutability":"view"},{"type":"function","name":"getRoleAdmin","inputs":[{"name":"role","type":"bytes32","internalType":"bytes32"}],"outputs":[{"name":"","type":"bytes32","internalType":"bytes32"}],"stateMutability":"view"},{"type":"function","name":"getTokenId","inputs":[{"name":"badgeId","type":"uint256","internalType":"uint256"}],"outputs":[{"name":"","type":"uint256","internalType":"uint256"}],"stateMutability":"view"},{"type":"function","name":"grantRole","inputs":[{"name":"role","type":"bytes32","internalType":"bytes32"},{"name":"account","type":"address","internalType":"address"}],"outputs":[],"stateMutability":"nonpayable"},{"type":"function","name":"hasRole","inputs":[{"name":"role","type":"bytes32","internalType":"bytes32"},{"name":"account","type":"address","internalType":"address"}],"outputs":[{"name":"","type":"bool","internalType":"bool"}],"stateMutability":"view"},{"type":"function","name":"isApprovedForAll","inputs":[{"name":"owner","type":"address","internalType":"address"},{"name":"operator","type":"address","internalType":"address"}],"outputs":[{"name":"","type":"bool","internalType":"bool"}],"stateMutability":"view"},{"type":"function","name":"mintTo","inputs":[{"name":"to","type":"address","internalType":"address"},{"name":"badgeId","type":"uint256","internalType":"uint256"},{"name":"uri","type":"string","internalType":"string"}],"outputs":[{"name":"tokenId","type":"uint256","internalType":"uint256"}],"stateMutability":"nonpayable"},{"type":"function","name":"name","inputs":[],"outputs":[{"name":"","type":"string","internalType":"string"}],"stateMutability":"view"},{"type":"function","name":"ownerOf","inputs":[{"name":"tokenId","type":"uint256","internalType":"uint256"}],"outputs":[{"name":"","type":"address","internalType":"address"}],"stateMutability":"view"},{"type":"function","name":"renounceRole","inputs":[{"name":"role","type":"bytes32","internalType":"bytes32"},{"name":"callerConfirmation","type":"address","internalType":"address"}],"outputs":[],"stateMutability":"nonpayable"},{"type":"function","name":"revokeRole","inputs":[{"name":"role","type":"bytes32","internalType":"bytes32"},{"name":"account","type":"address","internalType":"address"}],"outputs":[],"stateMutability":"nonpayable"},{"type":"function","name":"safeTransferFrom","inputs":[{"name":"from","type":"address","internalType":"address"},{"name":"to","type":"address","internalType":"address"},{"name":"tokenId","type":"uint256","internalType":"uint256"}],"outputs":[],"stateMutability":"nonpayable"},{"type":"function","name":"safeTransferFrom","inputs":[{"name":"from","type":"address","internalType":"address"},{"name":"to","type":"address","internalType":"address"},{"name":"tokenId","type":"uint256","internalType":"uint256"},{"name":"data","type":"bytes","internalType":"bytes"}],"outputs":[],"stateMutability":"nonpayable"},{"type":"function","name":"setApprovalForAll","inputs":[{"name":"operator","type":"address","internalType":"address"},{"name":"approved","type":"bool","internalType":"bool"}],"outputs":[],"stateMutability":"nonpayable"},{"type":"function","name":"supportsInterface","inputs":[{"name":"id","type":"bytes4","internalType":"bytes4"}],"outputs":[{"name":"","type":"bool","internalType":"bool"}],"stateMutability":"view"},{"type":"function","name":"symbol","inputs":[],"outputs":[{"name":"","type":"string","internalType":"string"}],"stateMutability":"view"},{"type":"function","name":"tokenURI","inputs":[{"name":"tokenId","type":"uint256","internalType":"uint256"}],"outputs":[{"name":"","type":"string","internalType":"string"}],"stateMutability":"view"},{"type":"function","name":"totalSupply","inputs":[],"outputs":[{"name":"","type":"uint256","internalType":"uint256"}],"stateMutability":"view"},{"type":"function","name":"transferFrom","inputs":[{"name":"from","type":"address","internalType":"address"},{"name":"to","type":"address","internalType":"address"},{"name":"tokenId","type":"uint256","internalType":"uint256"}],"outputs":[],"stateMutability":"nonpayable"},{"type":"event","name":"Approval","inputs":[{"name":"owner","type":"address","indexed":true,"internalType":"address"},{"name":"approved","type":"address","indexed":true,"internalType":"address"},{"name":"tokenId","type":"uint256","indexed":true,"internalType":"uint256"}],"anonymous":false},{"type":"event","name":"ApprovalForAll","inputs":[{"name":"owner","type":"address","indexed":true,"internalType":"address"},{"name":"operator","type":"address","indexed":true,"internalType":"address"},{"name":"approved","type":"bool","indexed":false,"internalType":"bool"}],"anonymous":false},{"type":"event","name":"BadgeBurned","inputs":[{"name":"tokenId","type":"uint256","indexed":true,"internalType":"uint256"},{"name":"badgeId","type":"uint256","indexed":false,"internalType":"uint256"}],"anonymous":false},{"type":"event","name":"BadgeMinted","inputs":[{"name":"to","type":"address","indexed":true,"internalType":"address"},{"name":"tokenId","type":"uint256","indexed":true,"internalType":"uint256"},{"name":"badgeId","type":"uint256","indexed":false,"internalType":"uint256"}],"anonymous":false},{"type":"event","name":"BatchMetadataUpdate","inputs":[{"name":"_fromTokenId","type":"uint256","indexed":false,"internalType":"uint256"},{"name":"_toTokenId","type":"uint256","indexed":false,"internalType":"uint256"}],"anonymous":false},{"type":"event","name":"MetadataUpdate","inputs":[{"name":"_tokenId","type":"uint256","indexed":false,"internalType":"uint256"}],"anonymous":false},{"type":"event","name":"RoleAdminChanged","inputs":[{"name":"role","type":"bytes32","indexed":true,"internalType":"bytes32"},{"name":"previousAdminRole","type":"bytes32","indexed":true,"internalType":"bytes32"},{"name":"newAdminRole","type":"bytes32","indexed":true,"internalType":"bytes32"}],"anonymous":false},{"type":"event","name":"RoleGranted","inputs":[{"name":"role","type":"bytes32","indexed":true,"internalType":"bytes32"},{"name":"account","type":"address","indexed":true,"internalType":"address"},{"name":"sender","type":"address","indexed":true,"internalType":"address"}],"anonymous":false},{"type":"event","name":"RoleRevoked","inputs":[{"name":"role","type":"bytes32","indexed":true,"internalType":"bytes32"},{"name":"account","type":"address","indexed":true,"internalType":"address"},{"name":"sender","type":"address","indexed":true,"internalType":"address"}],"anonymous":false},{"type":"event","name":"Transfer","inputs":[{"name":"from","type":"address","indexed":true,"internalType":"address"},{"name":"to","type":"address","indexed":true,"internalType":"address"},{"name":"tokenId","type":"uint256","indexed":true,"internalType":"uint256"}],"anonymous":false},{"type":"error","name":"AccessControlBadConfirmation","inputs":[]},{"type":"error","name":"AccessControlUnauthorizedAccount","inputs":[{"name":"account","type":"address","internalType":"address"},{"name":"neededRole","type":"bytes32","internalType":"bytes32"}]},{"type":"error","name":"ERC721IncorrectOwner","inputs":[{"name":"sender","type":"address","internalType":"address"},{"name":"tokenId","type":"uint256","internalType":"uint256"},{"name":"owner","type":"address","internalType":"address"}]},{"type":"error","name":"ERC721InsufficientApproval","inputs":[{"name":"operator","type":"address","internalType":"address"},{"name":"tokenId","type":"uint256","internalType":"uint256"}]},{"type":"error","name":"ERC721InvalidApprover","inputs":[{"name":"approver","type":"address","internalType":"address"}]},{"type":"error","name":"ERC721InvalidOperator","inputs":[{"name":"operator","type":"address","internalType":"address"}]},{"type":"error","name":"ERC721InvalidOwner","inputs":[{"name":"owner","type":"address","internalType":"address"}]},{"type":"error","name":"ERC721InvalidReceiver","inputs":[{"name":"receiver","type":"address","internalType":"address"}]},{"type":"error","name":"ERC721InvalidSender","inputs":[{"name":"sender","type":"address","internalType":"address"}]},{"type":"error","name":"ERC721NonexistentToken","inputs":[{"name":"tokenId","type":"uint256","internalType":"uint256"}]}],"bytecode":{"object":"0x608060405234801561000f575f5ffd5b5060405161382a38038061382a833981810160405281019061003191906103d0565b6040518060400160405280601481526020017f4d696e694861636b20416368696576656d656e740000000000000000000000008152506040518060400160405280600581526020017f4d48414348000000000000000000000000000000000000000000000000000000815250815f90816100ab9190610638565b5080600190816100bb9190610638565b5050506100d05f5f1b8261011b60201b60201c565b506101017f9f2df0fed2c77648de5860a4cc508cd0818c85b8b8a1ab4ceeef8d981c8956a68261011b60201b60201c565b506101145f5f1b5f61021160201b60201c565b5050610707565b5f61012c838361030760201b60201c565b61020757600160075f8581526020019081526020015f205f015f8473ffffffffffffffffffffffffffffffffffffffff1673ffffffffffffffffffffffffffffffffffffffff1681526020019081526020015f205f6101000a81548160ff0219169083151502179055506101a461036b60201b60201c565b73ffffffffffffffffffffffffffffffffffffffff168273ffffffffffffffffffffffffffffffffffffffff16847f2f8788117e7eff1d82e926ec794901d17c78024a50270940304540a733656f0d60405160405180910390a46001905061020b565b5f90505b92915050565b5f610222838361030760201b60201c565b156102fd575f60075f8581526020019081526020015f205f015f8473ffffffffffffffffffffffffffffffffffffffff1673ffffffffffffffffffffffffffffffffffffffff1681526020019081526020015f205f6101000a81548160ff02191690831515021790555061029a61036b60201b60201c565b73ffffffffffffffffffffffffffffffffffffffff168273ffffffffffffffffffffffffffffffffffffffff16847ff6391f5c32d9c69d2a47ea670b442974b53935d1edc7fd64eb21e047a839171b60405160405180910390a460019050610301565b5f90505b92915050565b5f60075f8481526020019081526020015f205f015f8373ffffffffffffffffffffffffffffffffffffffff1673ffffffffffffffffffffffffffffffffffffffff1681526020019081526020015f205f9054906101000a900460ff16905092915050565b5f33905090565b5f5ffd5b5f73ffffffffffffffffffffffffffffffffffffffff82169050919050565b5f61039f82610376565b9050919050565b6103af81610395565b81146103b9575f5ffd5b50565b5f815190506103ca816103a6565b92915050565b5f602082840312156103e5576103e4610372565b5b5f6103f2848285016103bc565b91505092915050565b5f81519050919050565b7f4e487b71000000000000000000000000000000000000000000000000000000005f52604160045260245ffd5b7f4e487b71000000000000000000000000000000000000000000000000000000005f52602260045260245ffd5b5f600282049050600182168061047657607f821691505b60208210810361048957610488610432565b5b50919050565b5f819050815f5260205f209050919050565b5f6020601f8301049050919050565b5f82821b905092915050565b5f600883026104eb7fffffffffffffffffffffffffffffffffffffffffffffffffffffffffffffffff826104b0565b6104f586836104b0565b95508019841693508086168417925050509392505050565b5f819050919050565b5f819050919050565b5f61053961053461052f8461050d565b610516565b61050d565b9050919050565b5f819050919050565b6105528361051f565b61056661055e82610540565b8484546104bc565b825550505050565b5f5f905090565b61057d61056e565b610588818484610549565b505050565b5b818110156105ab576105a05f82610575565b60018101905061058e565b5050565b601f8211156105f0576105c18161048f565b6105ca846104a1565b810160208510156105d9578190505b6105ed6105e5856104a1565b83018261058d565b50505b505050565b5f82821c905092915050565b5f6106105f19846008026105f5565b1980831691505092915050565b5f6106288383610601565b9150826002028217905092915050565b610641826103fb565b67ffffffffffffffff81111561065a57610659610405565b5b610664825461045f565b61066f8282856105af565b5f60209050601f8311600181146106a0575f841561068e578287015190505b610698858261061d565b8655506106ff565b601f1984166106ae8661048f565b5f5b828110156106d5578489015182556001820191506020850194506020810190506106b0565b868310156106f257848901516106ee601f891682610601565b8355505b6001600288020188555050505b505050505050565b613116806107145f395ff3fe608060405234801561000f575f5ffd5b506004361061018c575f3560e01c806348983b28116100dc578063a217fddf11610095578063c87b56dd1161006f578063c87b56dd146104b6578063d5391393146104e6578063d547741f14610504578063e985e9c5146105205761018c565b8063a217fddf14610460578063a22cb4651461047e578063b88d4fde1461049a5761018c565b806348983b28146103525780636352211e1461038257806370a08231146103b257806391d14854146103e257806395d89b41146104125780639f6ed25f146104305761018c565b806323b872dd1161014957806332cb6b0c1161012357806332cb6b0c146102e057806336568abe146102fe57806342842e0e1461031a57806342966c68146103365761018c565b806323b872dd14610278578063248a9ca3146102945780632f2ff15d146102c45761018c565b806301ffc9a71461019057806306fdde03146101c0578063081812fc146101de578063095ea7b31461020e57806314ff5ea31461022a57806318160ddd1461025a575b5f5ffd5b6101aa60048036038101906101a5919061231d565b610550565b6040516101b79190612362565b60405180910390f35b6101c8610561565b6040516101d591906123eb565b60405180910390f35b6101f860048036038101906101f3919061243e565b6105f0565b60405161020591906124a8565b60405180910390f35b610228600480360381019061022391906124eb565b61060b565b005b610244600480360381019061023f919061243e565b610621565b6040516102519190612538565b60405180910390f35b61026261063b565b60405161026f9190612538565b60405180910390f35b610292600480360381019061028d9190612551565b610644565b005b6102ae60048036038101906102a991906125d4565b610743565b6040516102bb919061260e565b60405180910390f35b6102de60048036038101906102d99190612627565b610760565b005b6102e8610782565b6040516102f59190612538565b60405180910390f35b61031860048036038101906103139190612627565b610789565b005b610334600480360381019061032f9190612551565b610804565b005b610350600480360381019061034b919061243e565b610823565b005b61036c6004803603810190610367919061243e565b6108f4565b6040516103799190612538565b60405180910390f35b61039c6004803603810190610397919061243e565b61090e565b6040516103a991906124a8565b60405180910390f35b6103cc60048036038101906103c79190612665565b61091f565b6040516103d99190612538565b60405180910390f35b6103fc60048036038101906103f79190612627565b6109d5565b6040516104099190612362565b60405180910390f35b61041a610a39565b60405161042791906123eb565b60405180910390f35b61044a600480360381019061044591906126f1565b610ac9565b6040516104579190612538565b60405180910390f35b610468610cc4565b604051610475919061260e565b60405180910390f35b6104986004803603810190610493919061278c565b610cca565b005b6104b460048036038101906104af91906128f2565b610ce0565b005b6104d060048036038101906104cb919061243e565b610d05565b6040516104dd91906123eb565b60405180910390f35b6104ee610d17565b6040516104fb919061260e565b60405180910390f35b61051e60048036038101906105199190612627565b610d3b565b005b61053a60048036038101906105359190612972565b610d5d565b6040516105479190612362565b60405180910390f35b5f61055a82610deb565b9050919050565b60605f805461056f906129dd565b80601f016020809104026020016040519081016040528092919081815260200182805461059b906129dd565b80156105e65780601f106105bd576101008083540402835291602001916105e6565b820191905f5260205f20905b8154815290600101906020018083116105c957829003601f168201915b5050505050905090565b5f6105fa82610e64565b5061060482610eea565b9050919050565b61061d8282610618610f23565b610f2a565b5050565b5f60095f8381526020019081526020015f20549050919050565b5f600854905090565b5f73ffffffffffffffffffffffffffffffffffffffff168273ffffffffffffffffffffffffffffffffffffffff16036106b4575f6040517f64a0ae920000000000000000000000000000000000000000000000000000000081526004016106ab91906124a8565b60405180910390fd5b5f6106c783836106c2610f23565b610f3c565b90508373ffffffffffffffffffffffffffffffffffffffff168173ffffffffffffffffffffffffffffffffffffffff161461073d578382826040517f64283d7b00000000000000000000000000000000000000000000000000000000815260040161073493929190612a0d565b60405180910390fd5b50505050565b5f60075f8381526020019081526020015f20600101549050919050565b61076982610743565b61077281611006565b61077c838361101a565b50505050565b620f424081565b610791610f23565b73ffffffffffffffffffffffffffffffffffffffff168173ffffffffffffffffffffffffffffffffffffffff16146107f5576040517f6697b23200000000000000000000000000000000000000000000000000000000815260040160405180910390fd5b6107ff8282611104565b505050565b61081e83838360405180602001604052805f815250610ce0565b505050565b5f5f1b61082f81611006565b5f600a5f8481526020019081526020015f205490505f8103610886576040517f08c379a000000000000000000000000000000000000000000000000000000000815260040161087d90612a8c565b60405180910390fd5b61088f836111ee565b60095f8281526020019081526020015f205f9055600a5f8481526020019081526020015f205f9055827fa62b4aa28aee1159120e9258cc734aa0263ff75612bc7886c1048b74a14dbb8a826040516108e79190612538565b60405180910390a2505050565b5f600a5f8381526020019081526020015f20549050919050565b5f61091882610e64565b9050919050565b5f5f73ffffffffffffffffffffffffffffffffffffffff168273ffffffffffffffffffffffffffffffffffffffff1603610990575f6040517f89c62b6400000000000000000000000000000000000000000000000000000000815260040161098791906124a8565b60405180910390fd5b60035f8373ffffffffffffffffffffffffffffffffffffffff1673ffffffffffffffffffffffffffffffffffffffff1681526020019081526020015f20549050919050565b5f60075f8481526020019081526020015f205f015f8373ffffffffffffffffffffffffffffffffffffffff1673ffffffffffffffffffffffffffffffffffffffff1681526020019081526020015f205f9054906101000a900460ff16905092915050565b606060018054610a48906129dd565b80601f0160208091040260200160405190810160405280929190818152602001828054610a74906129dd565b8015610abf5780601f10610a9657610100808354040283529160200191610abf565b820191905f5260205f20905b815481529060010190602001808311610aa257829003601f168201915b5050505050905090565b5f7f9f2df0fed2c77648de5860a4cc508cd0818c85b8b8a1ab4ceeef8d981c8956a6610af481611006565b620f424060085410610b3b576040517f08c379a0000000000000000000000000000000000000000000000000000000008152600401610b3290612af4565b60405180910390fd5b5f60095f8781526020019081526020015f205414610b8e576040517f08c379a0000000000000000000000000000000000000000000000000000000008152600401610b8590612b5c565b60405180910390fd5b5f8484905011610bd3576040517f08c379a0000000000000000000000000000000000000000000000000000000008152600401610bca90612bc4565b60405180910390fd5b60085f8154610be190612c0f565b9190508190559150610bf38683611270565b610c408285858080601f0160208091040260200160405190810160405280939291908181526020018383808284375f81840152601f19601f8201169050808301925050505050505061128d565b8160095f8781526020019081526020015f208190555084600a5f8481526020019081526020015f2081905550818673ffffffffffffffffffffffffffffffffffffffff167f7e6f783c7d2fd31e9979cbb09639e191e20de085caf64b2875d53ff862aa3baa87604051610cb39190612538565b60405180910390a350949350505050565b5f5f1b81565b610cdc610cd5610f23565b83836112e7565b5050565b610ceb848484610644565b610cff610cf6610f23565b858585856114c0565b50505050565b6060610d108261166c565b9050919050565b7f9f2df0fed2c77648de5860a4cc508cd0818c85b8b8a1ab4ceeef8d981c8956a681565b610d4482610743565b610d4d81611006565b610d578383611104565b50505050565b5f60055f8473ffffffffffffffffffffffffffffffffffffffff1673ffffffffffffffffffffffffffffffffffffffff1681526020019081526020015f205f8373ffffffffffffffffffffffffffffffffffffffff1673ffffffffffffffffffffffffffffffffffffffff1681526020019081526020015f205f9054906101000a900460ff16905092915050565b5f7f7965db0b000000000000000000000000000000000000000000000000000000007bffffffffffffffffffffffffffffffffffffffffffffffffffffffff1916827bffffffffffffffffffffffffffffffffffffffffffffffffffffffff19161480610e5d5750610e5c826116e8565b5b9050919050565b5f5f610e6f83611748565b90505f73ffffffffffffffffffffffffffffffffffffffff168173ffffffffffffffffffffffffffffffffffffffff1603610ee157826040517f7e273289000000000000000000000000000000000000000000000000000000008152600401610ed89190612538565b60405180910390fd5b80915050919050565b5f60045f8381526020019081526020015f205f9054906101000a900473ffffffffffffffffffffffffffffffffffffffff169050919050565b5f33905090565b610f378383836001611781565b505050565b5f5f610f4784611748565b90505f73ffffffffffffffffffffffffffffffffffffffff168173ffffffffffffffffffffffffffffffffffffffff1614158015610fb157505f73ffffffffffffffffffffffffffffffffffffffff168573ffffffffffffffffffffffffffffffffffffffff1614155b15610ff1576040517f08c379a0000000000000000000000000000000000000000000000000000000008152600401610fe890612ca0565b60405180910390fd5b610ffc858585611940565b9150509392505050565b61101781611012610f23565b611b4b565b50565b5f61102583836109d5565b6110fa57600160075f8581526020019081526020015f205f015f8473ffffffffffffffffffffffffffffffffffffffff1673ffffffffffffffffffffffffffffffffffffffff1681526020019081526020015f205f6101000a81548160ff021916908315150217905550611097610f23565b73ffffffffffffffffffffffffffffffffffffffff168273ffffffffffffffffffffffffffffffffffffffff16847f2f8788117e7eff1d82e926ec794901d17c78024a50270940304540a733656f0d60405160405180910390a4600190506110fe565b5f90505b92915050565b5f61110f83836109d5565b156111e4575f60075f8581526020019081526020015f205f015f8473ffffffffffffffffffffffffffffffffffffffff1673ffffffffffffffffffffffffffffffffffffffff1681526020019081526020015f205f6101000a81548160ff021916908315150217905550611181610f23565b73ffffffffffffffffffffffffffffffffffffffff168273ffffffffffffffffffffffffffffffffffffffff16847ff6391f5c32d9c69d2a47ea670b442974b53935d1edc7fd64eb21e047a839171b60405160405180910390a4600190506111e8565b5f90505b92915050565b5f6111fa5f835f610f3c565b90505f73ffffffffffffffffffffffffffffffffffffffff168173ffffffffffffffffffffffffffffffffffffffff160361126c57816040517f7e2732890000000000000000000000000000000000000000000000000000000081526004016112639190612538565b60405180910390fd5b5050565b611289828260405180602001604052805f815250611b9c565b5050565b8060065f8481526020019081526020015f2090816112ab9190612e5e565b507ff8e1a15aba9398e019f0b49df1a4fde98ee17ae345cb5f6b5e2c27f5033e8ce7826040516112db9190612538565b60405180910390a15050565b5f73ffffffffffffffffffffffffffffffffffffffff168373ffffffffffffffffffffffffffffffffffffffff1603611357575f6040517fa9fbf51f00000000000000000000000000000000000000000000000000000000815260040161134e91906124a8565b60405180910390fd5b5f73ffffffffffffffffffffffffffffffffffffffff168273ffffffffffffffffffffffffffffffffffffffff16036113c757816040517f5b08ba180000000000000000000000000000000000000000000000000000000081526004016113be91906124a8565b60405180910390fd5b8060055f8573ffffffffffffffffffffffffffffffffffffffff1673ffffffffffffffffffffffffffffffffffffffff1681526020019081526020015f205f8473ffffffffffffffffffffffffffffffffffffffff1673ffffffffffffffffffffffffffffffffffffffff1681526020019081526020015f205f6101000a81548160ff0219169083151502179055508173ffffffffffffffffffffffffffffffffffffffff168373ffffffffffffffffffffffffffffffffffffffff167f17307eab39ab6107e8899845ad3d59bd9653f200f220920489ca2b5937696c31836040516114b39190612362565b60405180910390a3505050565b5f8373ffffffffffffffffffffffffffffffffffffffff163b1115611665578273ffffffffffffffffffffffffffffffffffffffff1663150b7a02868685856040518563ffffffff1660e01b815260040161151e9493929190612f7f565b6020604051808303815f875af192505050801561155957506040513d601f19601f820116820180604052508101906115569190612fdd565b60015b6115da573d805f8114611587576040519150601f19603f3d011682016040523d82523d5f602084013e61158c565b606091505b505f8151036115d257836040517f64a0ae920000000000000000000000000000000000000000000000000000000081526004016115c991906124a8565b60405180910390fd5b805160208201fd5b63150b7a0260e01b7bffffffffffffffffffffffffffffffffffffffffffffffffffffffff1916817bffffffffffffffffffffffffffffffffffffffffffffffffffffffff19161461166357836040517f64a0ae9200000000000000000000000000000000000000000000000000000000815260040161165a91906124a8565b60405180910390fd5b505b5050505050565b606061167782610e64565b505f611681611bbf565b90505f61168d84611bd5565b90505f8251036116a15780925050506116e3565b5f815111156116d55781816040516020016116bd929190613042565b604051602081830303815290604052925050506116e3565b6116de84611c76565b925050505b919050565b5f634906490660e01b7bffffffffffffffffffffffffffffffffffffffffffffffffffffffff1916827bffffffffffffffffffffffffffffffffffffffffffffffffffffffff19161480611741575061174082611cdc565b5b9050919050565b5f60025f8381526020019081526020015f205f9054906101000a900473ffffffffffffffffffffffffffffffffffffffff169050919050565b80806117b957505f73ffffffffffffffffffffffffffffffffffffffff168273ffffffffffffffffffffffffffffffffffffffff1614155b156118eb575f6117c884610e64565b90505f73ffffffffffffffffffffffffffffffffffffffff168373ffffffffffffffffffffffffffffffffffffffff161415801561183257508273ffffffffffffffffffffffffffffffffffffffff168173ffffffffffffffffffffffffffffffffffffffff1614155b801561184557506118438184610d5d565b155b1561188757826040517fa9fbf51f00000000000000000000000000000000000000000000000000000000815260040161187e91906124a8565b60405180910390fd5b81156118e957838573ffffffffffffffffffffffffffffffffffffffff168273ffffffffffffffffffffffffffffffffffffffff167f8c5be1e5ebec7d5bd14f71427d1e84f3dd0314c0f7b2291e5b200ac8c7c3b92560405160405180910390a45b505b8360045f8581526020019081526020015f205f6101000a81548173ffffffffffffffffffffffffffffffffffffffff021916908373ffffffffffffffffffffffffffffffffffffffff16021790555050505050565b5f5f61194b84611748565b90505f73ffffffffffffffffffffffffffffffffffffffff168373ffffffffffffffffffffffffffffffffffffffff161461198c5761198b818486611dbd565b5b5f73ffffffffffffffffffffffffffffffffffffffff168173ffffffffffffffffffffffffffffffffffffffff1614611a17576119cb5f855f5f611781565b600160035f8373ffffffffffffffffffffffffffffffffffffffff1673ffffffffffffffffffffffffffffffffffffffff1681526020019081526020015f205f82825403925050819055505b5f73ffffffffffffffffffffffffffffffffffffffff168573ffffffffffffffffffffffffffffffffffffffff1614611a9657600160035f8773ffffffffffffffffffffffffffffffffffffffff1673ffffffffffffffffffffffffffffffffffffffff1681526020019081526020015f205f82825401925050819055505b8460025f8681526020019081526020015f205f6101000a81548173ffffffffffffffffffffffffffffffffffffffff021916908373ffffffffffffffffffffffffffffffffffffffff160217905550838573ffffffffffffffffffffffffffffffffffffffff168273ffffffffffffffffffffffffffffffffffffffff167fddf252ad1be2c89b69c2b068fc378daa952ba7f163c4a11628f55a4df523b3ef60405160405180910390a4809150509392505050565b611b5582826109d5565b611b985780826040517fe2517d3f000000000000000000000000000000000000000000000000000000008152600401611b8f929190613065565b60405180910390fd5b5050565b611ba68383611e80565b611bba611bb1610f23565b5f8585856114c0565b505050565b606060405180602001604052805f815250905090565b606060065f8381526020019081526020015f208054611bf3906129dd565b80601f0160208091040260200160405190810160405280929190818152602001828054611c1f906129dd565b8015611c6a5780601f10611c4157610100808354040283529160200191611c6a565b820191905f5260205f20905b815481529060010190602001808311611c4d57829003601f168201915b50505050509050919050565b6060611c8182610e64565b505f611c8b611bbf565b90505f815111611ca95760405180602001604052805f815250611cd4565b80611cb384611f73565b604051602001611cc4929190613042565b6040516020818303038152906040525b915050919050565b5f7f80ac58cd000000000000000000000000000000000000000000000000000000007bffffffffffffffffffffffffffffffffffffffffffffffffffffffff1916827bffffffffffffffffffffffffffffffffffffffffffffffffffffffff19161480611da657507f5b5e139f000000000000000000000000000000000000000000000000000000007bffffffffffffffffffffffffffffffffffffffffffffffffffffffff1916827bffffffffffffffffffffffffffffffffffffffffffffffffffffffff1916145b80611db65750611db58261203d565b5b9050919050565b611dc88383836120a6565b611e7b575f73ffffffffffffffffffffffffffffffffffffffff168373ffffffffffffffffffffffffffffffffffffffff1603611e3c57806040517f7e273289000000000000000000000000000000000000000000000000000000008152600401611e339190612538565b60405180910390fd5b81816040517f177e802f000000000000000000000000000000000000000000000000000000008152600401611e7292919061308c565b60405180910390fd5b505050565b5f73ffffffffffffffffffffffffffffffffffffffff168273ffffffffffffffffffffffffffffffffffffffff1603611ef0575f6040517f64a0ae92000000000000000000000000000000000000000000000000000000008152600401611ee791906124a8565b60405180910390fd5b5f611efc83835f610f3c565b90505f73ffffffffffffffffffffffffffffffffffffffff168173ffffffffffffffffffffffffffffffffffffffff1614611f6e575f6040517f73c6ac6e000000000000000000000000000000000000000000000000000000008152600401611f6591906124a8565b60405180910390fd5b505050565b60605f6001611f8184612166565b0190505f8167ffffffffffffffff811115611f9f57611f9e6127ce565b5b6040519080825280601f01601f191660200182016040528015611fd15781602001600182028036833780820191505090505b5090505f82602083010190505b600115612032578080600190039150507f3031323334353637383961626364656600000000000000000000000000000000600a86061a8153600a8581612027576120266130b3565b5b0494505f8503611fde575b819350505050919050565b5f7f01ffc9a7000000000000000000000000000000000000000000000000000000007bffffffffffffffffffffffffffffffffffffffffffffffffffffffff1916827bffffffffffffffffffffffffffffffffffffffffffffffffffffffff1916149050919050565b5f5f73ffffffffffffffffffffffffffffffffffffffff168373ffffffffffffffffffffffffffffffffffffffff161415801561215d57508273ffffffffffffffffffffffffffffffffffffffff168473ffffffffffffffffffffffffffffffffffffffff16148061211e575061211d8484610d5d565b5b8061215c57508273ffffffffffffffffffffffffffffffffffffffff1661214483610eea565b73ffffffffffffffffffffffffffffffffffffffff16145b5b90509392505050565b5f5f5f90507a184f03e93ff9f4daa797ed6e38ed64bf6a1f01000000000000000083106121c2577a184f03e93ff9f4daa797ed6e38ed64bf6a1f01000000000000000083816121b8576121b76130b3565b5b0492506040810190505b6d04ee2d6d415b85acef810000000083106121ff576d04ee2d6d415b85acef810000000083816121f5576121f46130b3565b5b0492506020810190505b662386f26fc10000831061222e57662386f26fc100008381612224576122236130b3565b5b0492506010810190505b6305f5e1008310612257576305f5e100838161224d5761224c6130b3565b5b0492506008810190505b612710831061227c576127108381612272576122716130b3565b5b0492506004810190505b6064831061229f5760648381612295576122946130b3565b5b0492506002810190505b600a83106122ae576001810190505b80915050919050565b5f604051905090565b5f5ffd5b5f5ffd5b5f7fffffffff0000000000000000000000000000000000000000000000000000000082169050919050565b6122fc816122c8565b8114612306575f5ffd5b50565b5f81359050612317816122f3565b92915050565b5f60208284031215612332576123316122c0565b5b5f61233f84828501612309565b91505092915050565b5f8115159050919050565b61235c81612348565b82525050565b5f6020820190506123755f830184612353565b92915050565b5f81519050919050565b5f82825260208201905092915050565b8281835e5f83830152505050565b5f601f19601f8301169050919050565b5f6123bd8261237b565b6123c78185612385565b93506123d7818560208601612395565b6123e0816123a3565b840191505092915050565b5f6020820190508181035f83015261240381846123b3565b905092915050565b5f819050919050565b61241d8161240b565b8114612427575f5ffd5b50565b5f8135905061243881612414565b92915050565b5f60208284031215612453576124526122c0565b5b5f6124608482850161242a565b91505092915050565b5f73ffffffffffffffffffffffffffffffffffffffff82169050919050565b5f61249282612469565b9050919050565b6124a281612488565b82525050565b5f6020820190506124bb5f830184612499565b92915050565b6124ca81612488565b81146124d4575f5ffd5b50565b5f813590506124e5816124c1565b92915050565b5f5f60408385031215612501576125006122c0565b5b5f61250e858286016124d7565b925050602061251f8582860161242a565b9150509250929050565b6125328161240b565b82525050565b5f60208201905061254b5f830184612529565b92915050565b5f5f5f60608486031215612568576125676122c0565b5b5f612575868287016124d7565b9350506020612586868287016124d7565b92505060406125978682870161242a565b9150509250925092565b5f819050919050565b6125b3816125a1565b81146125bd575f5ffd5b50565b5f813590506125ce816125aa565b92915050565b5f602082840312156125e9576125e86122c0565b5b5f6125f6848285016125c0565b91505092915050565b612608816125a1565b82525050565b5f6020820190506126215f8301846125ff565b92915050565b5f5f6040838503121561263d5761263c6122c0565b5b5f61264a858286016125c0565b925050602061265b858286016124d7565b9150509250929050565b5f6020828403121561267a576126796122c0565b5b5f612687848285016124d7565b91505092915050565b5f5ffd5b5f5ffd5b5f5ffd5b5f5f83601f8401126126b1576126b0612690565b5b8235905067ffffffffffffffff8111156126ce576126cd612694565b5b6020830191508360018202830111156126ea576126e9612698565b5b9250929050565b5f5f5f5f60608587031215612709576127086122c0565b5b5f612716878288016124d7565b94505060206127278782880161242a565b935050604085013567ffffffffffffffff811115612748576127476122c4565b5b6127548782880161269c565b925092505092959194509250565b61276b81612348565b8114612775575f5ffd5b50565b5f8135905061278681612762565b92915050565b5f5f604083850312156127a2576127a16122c0565b5b5f6127af858286016124d7565b92505060206127c085828601612778565b9150509250929050565b5f5ffd5b7f4e487b71000000000000000000000000000000000000000000000000000000005f52604160045260245ffd5b612804826123a3565b810181811067ffffffffffffffff82111715612823576128226127ce565b5b80604052505050565b5f6128356122b7565b905061284182826127fb565b919050565b5f67ffffffffffffffff8211156128605761285f6127ce565b5b612869826123a3565b9050602081019050919050565b828183375f83830152505050565b5f61289661289184612846565b61282c565b9050828152602081018484840111156128b2576128b16127ca565b5b6128bd848285612876565b509392505050565b5f82601f8301126128d9576128d8612690565b5b81356128e9848260208601612884565b91505092915050565b5f5f5f5f6080858703121561290a576129096122c0565b5b5f612917878288016124d7565b9450506020612928878288016124d7565b93505060406129398782880161242a565b925050606085013567ffffffffffffffff81111561295a576129596122c4565b5b612966878288016128c5565b91505092959194509250565b5f5f60408385031215612988576129876122c0565b5b5f612995858286016124d7565b92505060206129a6858286016124d7565b9150509250929050565b7f4e487b71000000000000000000000000000000000000000000000000000000005f52602260045260245ffd5b5f60028204905060018216806129f457607f821691505b602082108103612a0757612a066129b0565b5b50919050565b5f606082019050612a205f830186612499565b612a2d6020830185612529565b612a3a6040830184612499565b949350505050565b7f546f6b656e206e6f7420666f756e6400000000000000000000000000000000005f82015250565b5f612a76600f83612385565b9150612a8182612a42565b602082019050919050565b5f6020820190508181035f830152612aa381612a6a565b9050919050565b7f4d617820737570706c79207265616368656400000000000000000000000000005f82015250565b5f612ade601283612385565b9150612ae982612aaa565b602082019050919050565b5f6020820190508181035f830152612b0b81612ad2565b9050919050565b7f426164676520494420616c7265616479207573656400000000000000000000005f82015250565b5f612b46601583612385565b9150612b5182612b12565b602082019050919050565b5f6020820190508181035f830152612b7381612b3a565b9050919050565b7f5552492063616e6e6f7420626520656d707479000000000000000000000000005f82015250565b5f612bae601383612385565b9150612bb982612b7a565b602082019050919050565b5f6020820190508181035f830152612bdb81612ba2565b9050919050565b7f4e487b71000000000000000000000000000000000000000000000000000000005f52601160045260245ffd5b5f612c198261240b565b91507fffffffffffffffffffffffffffffffffffffffffffffffffffffffffffffffff8203612c4b57612c4a612be2565b5b600182019050919050565b7f536f756c626f756e643a206e6f6e2d7472616e7366657261626c6500000000005f82015250565b5f612c8a601b83612385565b9150612c9582612c56565b602082019050919050565b5f6020820190508181035f830152612cb781612c7e565b9050919050565b5f819050815f5260205f209050919050565b5f6020601f8301049050919050565b5f82821b905092915050565b5f60088302612d1a7fffffffffffffffffffffffffffffffffffffffffffffffffffffffffffffffff82612cdf565b612d248683612cdf565b95508019841693508086168417925050509392505050565b5f819050919050565b5f612d5f612d5a612d558461240b565b612d3c565b61240b565b9050919050565b5f819050919050565b612d7883612d45565b612d8c612d8482612d66565b848454612ceb565b825550505050565b5f5f905090565b612da3612d94565b612dae818484612d6f565b505050565b5b81811015612dd157612dc65f82612d9b565b600181019050612db4565b5050565b601f821115612e1657612de781612cbe565b612df084612cd0565b81016020851015612dff578190505b612e13612e0b85612cd0565b830182612db3565b50505b505050565b5f82821c905092915050565b5f612e365f1984600802612e1b565b1980831691505092915050565b5f612e4e8383612e27565b9150826002028217905092915050565b612e678261237b565b67ffffffffffffffff811115612e8057612e7f6127ce565b5b612e8a82546129dd565b612e95828285612dd5565b5f60209050601f831160018114612ec6575f8415612eb4578287015190505b612ebe8582612e43565b865550612f25565b601f198416612ed486612cbe565b5f5b82811015612efb57848901518255600182019150602085019450602081019050612ed6565b86831015612f185784890151612f14601f891682612e27565b8355505b6001600288020188555050505b505050505050565b5f81519050919050565b5f82825260208201905092915050565b5f612f5182612f2d565b612f5b8185612f37565b9350612f6b818560208601612395565b612f74816123a3565b840191505092915050565b5f608082019050612f925f830187612499565b612f9f6020830186612499565b612fac6040830185612529565b8181036060830152612fbe8184612f47565b905095945050505050565b5f81519050612fd7816122f3565b92915050565b5f60208284031215612ff257612ff16122c0565b5b5f612fff84828501612fc9565b91505092915050565b5f81905092915050565b5f61301c8261237b565b6130268185613008565b9350613036818560208601612395565b80840191505092915050565b5f61304d8285613012565b91506130598284613012565b91508190509392505050565b5f6040820190506130785f830185612499565b61308560208301846125ff565b9392505050565b5f60408201905061309f5f830185612499565b6130ac6020830184612529565b9392505050565b7f4e487b71000000000000000000000000000000000000000000000000000000005f52601260045260245ffdfea26469706673582212206c4734bbc08ff4f2f1a551850ede5c775a7015e4b0c0163bc6a7a52444d4322964736f6c634300081e0033","linkReferences":{}},"methodIdentifiers":{"DEFAULT_ADMIN_ROLE()":"a217fddf","MAX_SUPPLY()":"32cb6b0c","MINTER_ROLE()":"d5391393","approve(address,uint256)":"095ea7b3","balanceOf(address)":"70a08231","burn(uint256)":"42966c68","getApproved(uint256)":"081812fc","getBadgeId(uint256)":"48983b28","getRoleAdmin(bytes32)":"248a9ca3","getTokenId(uint256)":"14ff5ea3","grantRole(bytes32,address)":"2f2ff15d","hasRole(bytes32,address)":"91d14854","isApprovedForAll(address,address)":"e985e9c5","mintTo(address,uint256,string)":"9f6ed25f","name()":"06fdde03","ownerOf(uint256)":"6352211e","renounceRole(bytes32,address)":"36568abe","revokeRole(bytes32,address)":"d547741f","safeTransferFrom(address,address,uint256)":"42842e0e","safeTransferFrom(address,address,uint256,bytes)":"b88d4fde","setApprovalForAll(address,bool)":"a22cb465","supportsInterface(bytes4)":"01ffc9a7","symbol()":"95d89b41","tokenURI(uint256)":"c87b56dd","totalSupply()":"18160ddd","transferFrom(address,address,uint256)":"23b872dd"},"id":25}